:100000000C949E090C94E5090C94E5090C94E509FF
:100010000C94E5090C94E5090C94E5090C94E509A8
:100020000C94E5090C94E5090C945F240C9432259A
:100030000C946C1B0C94E5090C94E5090C94E509EF
:100040000C94E5090C94E5090C94E5090C94E50978
:100050000C94E5090C94CD1B0C94E5090C94E5096E
:100060000C94E5090C94E5090C94E5090C94E50958
:100070000C94E5090C94E5090C94E5090C94E50948
:100080000C94E5090C94E5090C94E5090C94E50938
:100090000C94E5090C94E5090C94E5090C94E50928
:1000A0000C94E5090C94E5090C94E509010401118F
:1000B0000204010C02110110020C021001080208D6
:1000C000010C020C01160216011702170115021588
:1000D0000104011602040216010B020B00011802B2
:1000E00018011A021A011802180001060206010F6F
:1000F000020F01120212010F020F011B021B010766
:1001000002070001060206010A020A010A020A00A9
:10011000A800AA00A9006B000000007000002900E0
:1001200000004800470053005700560054001D01CE
:100130001D03060135001E001F0020005F00600047
:10014000610055001601100319012B0014001A005C
:1001500008005C005D005E0003300000000000004D
:10016000390004001600070059005A005B000230F5
:10017000000052000000E10000001D001B006300B1
:10018000620000300130500051004F00E000E200FA
:10019000E30000003C003D003E00AC00AE00AB00C0
:1001A00042004300440045000000210022002300DB
:1001B00024002500260027002D002E002A00000024
:1001C000150017001C0018000C00120013002F006F
:1001D00030003100000009000A000B000D000E0085
:1001E0000F00330034000000280000000600190052
:1001F000050011001000360037003800E100000053
:100200000000000000002C00000000000000E700DB
:10021000E600E0001D0100000100010001000100F6
:1002200000000100000001000000010001000100C9
:1002300001000100010001000100010001000100B6
:1002400001000100010001000100010001000100A6
:100250000100010001000100010001000100010096
:100260000100000000000000010001000100010089
:100270000100010001000100000001000000010078
:100280000000010001000100010001000100010067
:100290000100010001000100010000000100010057
:1002A0000100010001000100010001000100010046
:1002B0000000010001000100010001000100010037
:1002C0000100010001000000010001000100010027
:1002D0000100010001000100010001000000010017
:1002E0000100010001000100010001000100000007
:1002F00001000000010001000100010001000100F7
:1003000001000100010000000000000000000100E9
:1003100000000000000001000100010001000000D9
:1003200001000100010001000000010000000100C7
:1003300000000100010001000100010001000100B6
:1003400001000100010001000100010001000100A5
:100350000100010001000100010001000100010095
:100360000100010001000100010000000000000088
:100370000100010001000100010001000100010075
:100380000000010000000100000001000100010068
:100390000100010001000100010001000100010055
:1003A0000100000001000100010001000100010046
:1003B0000100010001000100000001000100010036
:1003C0000100010001000100010001000100000026
:1003D0000100010001000100010001000100010015
:1003E0000100010000000100010001000100010006
:1003F00001000100010000000100000001000100F7
:1004000001000100010001000100010001000000E5
:1004100000000000000001000000000000000100DA
:1004200001000100010000000100010001000100C5
:1004300000000100000001000000010001000100B7
:1004400001000100010001000100010001000100A4
:100450000100010001000100010001000100010094
:100460000100010001000100010001000100010084
:100470000100000000000000010001000100010077
:100480000100010001000100000001000000010066
:100490000000010001000100010001000100010055
:1004A0000100010001000100010000000100010045
:1004B0000100010001000100010001000100010034
:1004C0000000010001000100010001000100010025
:1004D0000100010001000000010001000100010015
:1004E0000100010001000100010001000000010005
:1004F00001000100010001000100010001000000F5
:1005000001000000010001000100010001000100E4
:1005100001000100010000000000000000000100D7
:1005200000000000000001000100010001000000C7
:1005300001000100010001000000010000000100B5
:1005400000000100010001000100010001000100A4
:100550000100010001000100010001000100010093
:100560000100010001000100010001000100010083
:100570000100010001000100010000000000000076
:100580000100010001000100010001000100010063
:100590000000010000000100000001000100010056
:1005A0000100010001000100010001000100010043
:1005B0000100000001000100010001000100010034
:1005C0000100010001000100000001000100010024
:1005D0000100010001000100010001000100000014
:1005E0000100010001000100010001000100010003
:1005F00001000100000001000100010001000100F4
:1006000001000100010000000100000001000100E4
:1006100001000100010001000100010001000000D3
:1006200000000000000001000000000000000100C8
:1006300001000100010000000100010001000100B3
:1006400000000100000001000000010001000100A5
:100650000100010001000100010001000100010092
:100660000100010001000100010001000100010082
:100670000100010001000100010001000100010072
:100680000100000000000000010001000100010065
:100690000100010001000100000001000000010054
:1006A0000000010001000100010001000100010043
:1006B0000100010001000100010000000100010033
:1006C0000100010001000100010001000100010022
:1006D0000000010001000100010001000100010013
:1006E0000100010001000000010001000100010003
:1006F00001000100010001000100010000000100F3
:1007000001000100010001000100010001000000E2
:1007100001000000010001000100010001000100D2
:1007200001000100010000000000000000000100C5
:1007300000000000000001000100010001000000B5
:1007400001000100010001000000010000000100A3
:100750000000010001000100010001000100010092
:100760000100010001000100010001000100010081
:100770000100010001000100010001000100010071
:100780000100010001000100010000000000000064
:100790000100010001000100010001000100010051
:1007A0000000010000000100000001000100010044
:1007B0000100010001000100010001000100010031
:1007C0000100000001000100010001000100010022
:1007D0000100010001000100000001000100010012
:1007E0000100010001000100010001000100000002
:1007F00001000100010001000100010001000100F1
:1008000001000100000001000100010001000100E1
:1008100001000100010000000100000001000100D2
:1008200001000100010001000100010001000000C1
:1008300000000000000001000000000000000100B6
:1008400001000100010000000100010001000100A1
:100850000000010000000100000001000100010093
:100860000100010001000100010001000100010080
:100870000100010001000100010001000100010070
:100880000100010001000100010001000100010060
:100890000100000000000000010001000100010053
:1008A0000100010001000100000001000000010042
:1008B0000000010001000100010001000100010031
:1008C0000100010001000100010000000100010021
:1008D0000100010001000100010001000100010010
:1008E0000000010001000100010001000100010001
:1008F00001000100010000000100010001000100F1
:1009000001000100010001000100010000000100E0
:1009100001000100010001000100010001000000D0
:1009200001000000010001000100010001000100C0
:1009300001000100010000000000000000000100B3
:1009400000000000000001000100010001000000A3
:100950000100010001000100000001000000010091
:100960000000010001000100010001000100010080
:10097000010001000100010001000100010001006F
:10098000010001000100010001000100010001005F
:100990000100010001000100010000000000000052
:1009A000010001000100010001000100010001003F
:1009B0000000010000000100000001000100010032
:1009C000010001000100010001000100010001001F
:1009D0000100000001000100010001000100010010
:1009E0000100010001000100000001000100010000
:1009F00001000100010001000100010001000000F0
:100A000001000100010001000100010001000100DE
:100A100001000100000001000100010001000100CF
:100A200001000100010000000100000001000100C0
:100A300001000100010001000100010001000000AF
:100A400000000000000001000000000000000100A4
:100A5000010001000100000001000100010001008F
:100A60000000010000000100000001000100010081
:100A7000010001000100010001000100010001006E
:100A8000010001000100010001000100010001005E
:100A9000010001000100010001000100010001004E
:100AA0000100000000000000010001000100010041
:100AB0000100010001000100000001000000010030
:100AC000000001000100010001000100010001001F
:100AD000010001000100010001000000010001000F
:100AE00001000100010001000100010001000100FE
:100AF00000000100010001000100010001000100EF
:100B000001000100010000000100010001000100DE
:100B100001000100010001000100010000000100CE
:100B200001000100010001000100010001000000BE
:100B300001000000010001000100010001000100AE
:100B400001000100010000000000000000000100A1
:100B50000000000000000100010001000100000091
:100B6000010001000100010000000100000001007F
:100B7000000001000100010001000100010001006E
:100B8000010001000100010001000100010001005D
:100B9000010001000100010001000100010001004D
:100BA0000100010001000100010000000000000040
:100BB000010001000100010001000100010001002D
:100BC0000000010000000100000001000100010020
:100BD000010001000100010001000100010001000D
:100BE00001000000010001000100010001000100FE
:100BF00001000100010001000000010001000100EE
:100C000001000100010001000100010001000000DD
:100C100001000100010001000100010001000100CC
:100C200001000100000001000100010001000100BD
:100C300001000100010000000100000001000100AE
:100C4000010001000100010001000100010000009D
:100C50000000000000000100000000000000010092
:100C6000010001000100000001000100010001007D
:100C7000000001000000010000000100010001006F
:100C8000010001000100010001000100010001005C
:100C9000010001000100010001000100010001004C
:100CA000010001000100010001000100010001003C
:100CB000010000000000000001000100010001002F
:100CC000010001000100010000000100000001001E
:100CD000000001000100010001000100010001000D
:100CE00001000100010001000100000001000100FD
:100CF00001000100010001000100010001000100EC
:100D000000000100010001000100010001000100DC
:100D100001000100010000000100010001000100CC
:100D200001000100010001000100010000000100BC
:100D300001000100010001000100010001000000AC
:100D4000010000000100010001000100010001009C
:100D5000010001000100000000000000000001008F
:100D6000000000000000010001000100010000007F
:100D7000010001000100010000000100000001006D
:100D8000000001000100010001000100010001005C
:100D9000010001000100010001000100010001004B
:100DA000010001000100010001000100010001003B
:100DB000010001000100010001000000000000002E
:100DC000010001000100010001000100010001001B
:100DD000000001000000010000000100010001000E
:100DE00001000100010001000100010001000100FB
:100DF00001000000010001000100010001000100EC
:100E000001000100010001000000010001000100DB
:100E100001000100010001000100010001000000CB
:100E200001000100010001000100010001000100BA
:100E300001000100000001000100010001000100AB
:100E4000010001000100000001000000010001009C
:100E5000010001000100010001000100010000008B
:100E60000000000000000100000000000000010080
:100E7000010001000100000001000100010001006B
:100E8000000001000000010000000100010001005D
:100E9000010001000100010001000100010001004A
:100EA000010001000100010001000100010001003A
:100EB000010001000100010001000100010001002A
:100EC000010000000000000001000100010001001D
:100ED000010001000100010000000100000001000C
:100EE00000000100010001000100010001000100FB
:100EF00001000100010001000100000001000100EB
:100F000001000100010001000100010001000100D9
:100F100000000100010001000100010001000100CA
:100F200001000100010000000100010001000100BA
:100F300001000100010001000100010000000100AA
:100F4000010001000100010001000100010000009A
:100F5000010000000100010001000100010001008A
:100F6000010001000100000000000000000001007D
:100F7000000000000000010001000100010000006D
:100F8000010001000100010000000100000001005B
:100F9000000001000100010001000100010001004A
:100FA0000100010001000100010001000100010039
:100FB0000100010001000100010001000100010029
:100FC000010001000100010001000000000000001C
:100FD0000100010001000100010001000100010009
:100FE00000000100000001000000010001000100FC
:100FF00001000100010001000100010001000100E9
:1010000001000000010001000100010001000100D9
:1010100001000100010001000000010001000100C9
:1010200001000100010001000100010001000000B9
:1010300001000100010001000100010001000100A8
:101040000100010000000100010001000100010099
:10105000010001000100000001000000010001008A
:101060000100010001000100010001000100000079
:10107000000000000000010000000000000001006E
:101080000100010001000000010001000100010059
:10109000000001000000010000000100010001004B
:1010A0000100010001000100010001000100010038
:1010B0000100010001000100010001000100010028
:1010C0000100010001000100010001000100010018
:1010D000010000000000000001000100010001000B
:1010E00001000100010001000000010000000100FA
:1010F00000000100010001000100010001000100E9
:1011000001000100010001000100000001000100D8
:1011100001000100010001000100010001000100C7
:1011200000000100010001000100010001000100B8
:1011300001000100010000000100010001000100A8
:101140000100010001000100010001000000010098
:101150000100010001000100010001000100000088
:101160000100000001000100010001000100010078
:10117000010001000100000000000000000001006B
:10118000000000000000010001000100010000005B
:1011900012036B006500790062006F00610072004D
:1011A00064000000160371006D006B0062007500A2
:1011B00069006C006400650072000000040309040B
:1011C00009026D00040100A0FA09040000010301F6
:1011D00001000921110100012240000705810308D7
:1011E000000A0904010001030102000921110100A4
:1011F00001224D000705820308000A0904020001CC
:1012000003000000092111010001223600070583B7
:101210000308000A0904030001030000000921116A
:10122000010001223900070584032000011201108A
:101230000100000008EDFE606001000102000105F0
:10124000010906A101050719E029E7150025019507
:101250000875018102050819012905950575019197
:10126000029501750391010507190029F71500255D
:101270000195F875018102C005010980A10185026F
:101280001601002603001A81002A830075109501BB
:101290008100C0050C0901A1018503160100269CEF
:1012A000021A01002A9C02751095018100C00501F7
:1012B0000902A1010901A10005091901290515006B
:1012C00025019505750181029501750381010501CF
:1012D000093009311581257F950275088106093885
:1012E0001581257F950175088106050C0A380215C0
:1012F00081257F950175088106C0C005010906A1F9
:1013000001050719E029E7150025019508750181F8
:1013100002950175088101050819012905950575D2
:101320000191029501750391010507190029FF1527
:101330000026FF00950675088100C00011241FBE1D
:10134000CFEFDAE0DEBFCDBF04B603FE27C0809149
:101350009D0290919E02A0919F02B091A0028730C1
:10136000904BA740B04BD1F410929D0210929E0278
:1013700010929F021092A00214BE84B7877F84BF90
:101380000FB6F894A8958091600088618093600002
:10139000109260000FBEE0E0F8E3099511E0A0E0D4
:1013A000B1E0EEE3F1E502C005900D92AE33B10776
:1013B000D9F722E0AEE3B1E001C01D92AD39B2072A
:1013C000E1F70E94B5210C9471280C940000FC01F7
:1013D000623099F040F4828161110AC0882329F0BB
:1013E00083E091E00895633071F090E080E008952B
:1013F0008823D9F38AEE90E0089582818823A9F3A7
:101400008DED90E008958281882379F38CEA90E055
:10141000089508950895089581E0089581E008955C
:101420000C940E0A0E94BD132FEF84E39CE0215020
:1014300080409040E1F700C000000C94F01BEF9258
:10144000FF920F931F93CF93DF938C01FC01E080F9
:10145000F1808091A201811140C082818823C1F175
:10146000C7010E944219C82F682FC7010E94EB18BC
:10147000B7018C2F0E94570BEC01B8010E94100A93
:10148000882309F44BC0B801CE010E94600D882367
:1014900009F444C0C531F0E7DF0720F5C23080E72A
:1014A000D80708F04DC0C115E0E7DE0791F1C13063
:1014B000D047E1F181E08093400180934101C80170
:1014C000DF91CF911F910F91FF90EF900C940C0A38
:1014D000C7010E941919C82FCBCFC7010E9442191A
:1014E000B701C8CFCC3380E7D80709F49BC0CD3310
:1014F000D04701F7F8018281882309F4BAC010921D
:1015000041010E949C1B90933F0180933E0180E229
:1015100096C0F801828181110E94120A80E0DF9159
:10152000CF911F910F91FF90EF900895F801828164
:101530008823A1F380915D02816080935D02EECFEC
:10154000F8018281882309F4BACF0E94FD1A811123
:1015500002C00E94E31A0E941A1B90E090938F022F
:1015600080938E02FE01E350F04780918E028160ED
:10157000E231F10538F4ED58F74D0C9421288091B3
:101580008E02826080938E0280918E020E941E1BCA
:101590000E94BD13C3CF80918E028460F3CF8091EF
:1015A0008E028860EFCF80918E028061EBCF8091B8
:1015B0008E028062E7CF80918E028064E3CF8091BB
:1015C0008E028068DFCF80918E028C60DBCF8091AD
:1015D0008E028E7FD7CF80918E028D7FD3CF809168
:1015E0008E028B7FCFCF80918E02877FCBCF809171
:1015F0008E028F7EC7CF80918E028F7DC3CF809168
:101600008E028F7BBFCF80918E028F77BBCF809170
:101610008E02837FB7CF90918E02892F97FB87F937
:101620008058B0CFF8018281882361F01092400188
:101630000E949C1B90933F0180933E0182E00E9498
:1016400022116CCF8091400181110FC080913E0129
:1016500090913F010E94A81B883C910530F486E2DE
:101660000E94F70F86E20E94D31082E00E942911A7
:1016700055CF8091410181110FC080913E01909121
:101680003F010E94A81B883C910530F487E20E942C
:10169000F70F87E20E94D31080E2E8CF0C94AF0DE1
:1016A0000C94B10D0C940B0A0C94520B0895972FC7
:1016B00070E02BE0929F600D711D1124FB0194E8F6
:1016C000899FE00DF11D1124EE0FFF1FE05FFE4F1B
:1016D000859194910895FC01EE0FFF1FE057FE4E97
:1016E0008591949108950E94570B0E94E40C9C01EF
:1016F000811540E4940708F097C0211580E338076E
:1017000008F0FAC0203E310508F074C0203C3105D5
:1017100008F0E5C0283A310588F4253A310508F08B
:10172000E2C02130310509F477C0C9010497813A3C
:10173000910508F471C030E020E06EC0C901885AFC
:1017400091094597C0F7283A310509F4FEC0293AB6
:10175000310509F4FDC02A3A310509F4FCC02B3AE1
:10176000310509F4FBC02C3A310509F4FAC02B3BD2
:10177000310509F4F9C02C3B310509F4F8C02D3AC4
:10178000310509F4F7C0203B310509F4F6C02E3AC3
:10179000310509F4F5C02F3A310509F4F4C0213BB5
:1017A000310509F4F3C0223B310509F4F2C0233BB3
:1017B000310509F4F1C0243B310509F4F0C0253BA3
:1017C000310509F4EFC0263B310509F4EEC0273B93
:1017D000310509F4EDC0283B310509F4ECC0293B83
:1017E000310509F4EBC02A3B310509F4EAC020E0D9
:1017F00034E412C0211590E2390780F42F3F3105FF
:1018000009F050F4283E310538F0C901805F910994
:101810003065409708F08FCFC9010895C9019F70C6
:101820000E946B0B9C01F8CF8115944508F041C0D4
:10183000211583E5380708F06AC0211592E53907BC
:1018400038F5211541E5340708F05CC0211580E525
:10185000380708F454C0C90134E0969587953A9545
:10186000E1F78370422F46954695437090E2499F79
:10187000A0011124582B822F837021E030E002C098
:10188000220F331F8A95E2F7242B352B3C68C4CFF7
:10189000C9018370992741E050E002C0440F551FF1
:1018A0008A95E2F72695269580E2289F90011124DB
:1018B000EBCF211596E5390748F4922F882721159B
:1018C0003545C8F59C01246F306AA6CFC9019056F2
:1018D0003F708115904108F02ECF30629DCFC90135
:1018E000805C91099DCF253A310549F1263A3105B1
:1018F00049F522E830E490CF3327306C8DCF3F702C
:10190000306A8ACF322F2227216F306A85CFC901F2
:101910008370992741E050E002C0440F551F8A951B
:10192000E2F72695269580E2289F90011124242B2A
:10193000352B3A6871CF88279F719C01CECF21E863
:1019400030E46ACF23E830E467CF22EE34E464CF9A
:1019500029EE34E461CF2AEE34E45ECF25EB34E4A3
:101960005BCF26EB34E458CF23EB34E455CF24EBA4
:1019700034E452CF27EB34E44FCF2CEC34E44CCF9B
:101980002DEC34E449CF23E835E446CF2AE835E4AA
:1019900043CF22E935E440CF24E935E43DCF21E2CD
:1019A00036E43ACF23E236E437CF24E236E434CFCC
:1019B00025E236E431CF26E236E42ECF27E236E4C4
:1019C0002BCF2AE236E428CF803E910581F1C8F47E
:1019D0008133910509F462C048F48932910509F414
:1019E00056C08A32910509F460C008958933910583
:1019F000B9F082389105A1F08533910509F440C012
:101A00000895863E910561F138F4823E9105B1F06A
:101A1000833E9105E1F00895873E910551F10895C7
:101A200020918E022370D9F080EE90E008952091ED
:101A30008E0220FF14C089E390E0089520918E0269
:101A400022FF0DC024FD09C083EE90E0089520918F
:101A50008E0222FD31C024FF02C090E080E0089594
:101A600020918E0223FFFBCF24FDF7CF87EE90E07D
:101A7000089520918E0223FFEECF86EE90E0089528
:101A800020918E0225FFEBCF89E290E0089520910E
:101A90008E0225FFE4CF85E390E0089520918E0229
:101AA00026FFDDCF8AE290E0089520918E0226FF86
:101AB000D6CF81E390E0089582EE90E008950895F6
:101AC0000F931F93CF938C01FB018281811106C07C
:101AD000C1E08C2FCF911F910F910895C0914F01BC
:101AE000C11125C00531104799F70E945F0D81E0B3
:101AF00080934F010E949C1B90934E0180934D0157
:101B0000109242011092440110924301109246013A
:101B100010924501109248011092470110924A011B
:101B20001092490110924C0110924B01D2CF80913A
:101B30004D0190914E010E94A81B883C910540F6F2
:101B400080914201E82FF0E0EE0FFF1FED5BFE4FAA
:101B5000118300838F5F80934201C0E0BACF0C9461
:101B6000090A0C940A0A85B7806885BF85B7806822
:101B700085BFAEE1B1E061E070E08D91E82FE295C4
:101B8000EF70F0E041A18F709B0101C0220F8A9598
:101B9000EAF7922F9095942391A382A1822B82A39E
:101BA00081E0AA32B80749F7A3E1B1E061E070E053
:101BB0008D91E82FE295EF70F0E041A18F709B01CD
:101BC00001C0220F8A95EAF7922F9095942391A352
:101BD00082A1822B82A381E0AE31B80749F7E8E603
:101BE000F1E0A0E5B1E080E891E0119211921D9240
:101BF0001D928E179F07C9F70C944E0B2F923F92A0
:101C00004F925F926F927F928F929F92AF92BF920C
:101C1000CF92DF92EF92FF920F931F93CF93DF93B8
:101C200000E511E08EE1C82E81E0D82E1801EE24E7
:101C3000E394F12C66246394D1018D909D901D0155
:101C40001E921E92E60189916E01E82FE295EF70D7
:101C5000F0E091A18F70970101C0220F8A95EAF7F9
:101C6000892F822B81A382A1722E7094872182A357
:101C7000D0EADA95F1F763E171E090E080E0EB0102
:101C80005990BE01452D42954F7050E0EA0148A0A1
:101C9000AD90BC901197552D5F70E70102C0CC0F3D
:101CA000DD1F5A95E2F7AE01442109F059C0A701A2
:101CB000082E02C0440F551F0A94E2F74A295B29F7
:101CC00011965C934E9301968B309105C1F681A1DC
:101CD000782271A282A1282B22A38D919C91881633
:101CE000990641F0609280010E949C1B90938201B2
:101CF00080938101D8E62D16D1E03D0609F09CCFF6
:101D0000809180018823B1F08091810190918201BE
:101D10000E94A81B069770F0E8E6F1E0D8018D91CB
:101D20009D918D0181939193B1E008361B07B1F726
:101D3000109280010E94500B81E0DF91CF911F91A2
:101D40000F91FF90EF90DF90CF90BF90AF909F905A
:101D50008F907F906F905F904F903F902F9008955D
:101D600050E040E0ABCFE82FF0E0EE0FFF1FE85966
:101D7000FE4F80819181089508959093880180930A
:101D800087010895E0918701F0918801309721F053
:101D90000190F081E02D099480E00895E0918701A1
:101DA000F0918801309721F00280F381E02D0994B1
:101DB0000895E0918701F0918801309721F0048027
:101DC000F581E02D099408952091850130918601D7
:101DD0002817390771F09093860180938501E0916F
:101DE0008701F0918801309721F00680F781E02D7E
:101DF00009940895209183013091840128173907AF
:101E000071F09093840180938301E0918701F091B8
:101E10008801309721F00084F185E02D0994089520
:101E200008950C94100F0E94931B0E94B30D0C9404
:101E30005D1C5F926F927F928F929F92AF92BF9242
:101E4000CF92DF92EF92FF920F931F93CF93DF9386
:101E500000D000D00F92CDB7DEB70E94FE0D9AE8F9
:101E6000A92E91E0B92E10E000E088248394912CF3
:101E7000502E802F0E94B30E7C01F501C190D190AD
:101E80005F01C816D90609F45DC080915D0281FD2D
:101E90000E94BC0E90E080E0CE24DF243401082EA6
:101EA00002C0660C771C0A94E2F7960126213721BE
:101EB000232B09F442C089835A82E620F72081E06F
:101EC000EF2809F480E08B830E949C1B8160782FAF
:101ED0009D838C8349815A816B818D810E94CE0FB5
:101EE000000F111FF801E657FE4F8081918168268F
:101EF0007926718260820E940A1F0E94C20E909110
:101F000089018917B1F10E94C20E809389010F9057
:101F10000F900F900F900F90DF91CF911F910F9125
:101F2000FF90EF90DF90CF90BF90AF909F908F90F9
:101F30007F906F905F900C94540B01968B309105BD
:101F400009F0ACCF0F5F1F4F0C30110509F090CF97
:101F50008FEF89838A831B820E949C1B8160782F6C
:101F60009D838C8349815A816B818D810E94CE0F24
:101F7000C2CF0F900F900F900F900F90DF91CF91E5
:101F80001F910F91FF90EF90DF90CF90BF90AF9097
:101F90009F908F907F906F905F900895CF93DF9385
:101FA000CDB7DEB72B970FB6F894DEBF0FBECDBF0F
:101FB0004F83588769877A878B871E8285E0FE0169
:101FC0003796DE01119601900D928A95E1F74981CD
:101FD0005A816B817C818D819E812B960FB6F894FE
:101FE000DEBF0FBECDBFDF91CF910C944516882385
:101FF00009F4D8C0823871F40E94C20E81FDD2C0AB
:1020000089E30E94EA190E94B41A89E30E94271A00
:102010000C94B41A833859F40E94C20E80FDC2C0D9
:1020200083E50E94EA190E94B41A83E5EFCF843851
:1020300059F40E94C20E82FDB5C087E40E94EA19DD
:102040000E94B41A87E4E2CF9CEF980F913A18F4FB
:102050000E94EA19DDCF90E2980F983050F4877013
:1020600091E001C0990F8A95EAF7892F0E946B1AB7
:10207000CFCF9BE5980F933070F4853A31F0863AD4
:1020800039F083E890E00C94E40E81E890E0FBCF17
:1020900082E890E0F8CF98E5980F953108F082C07B
:1020A000883A09F440C0893A09F440C08A3A09F4F0
:1020B00040C08B3A09F440C08C3A09F440C08B3BD5
:1020C00009F440C08C3B09F440C08D3A09F440C08B
:1020D000803B09F440C08E3A09F440C08F3A09F4BD
:1020E00040C0813B09F440C0823B09F440C0833BBF
:1020F00009F440C0843B09F440C0853B09F440C06A
:10210000863B09F440C0873B09F440C0883B09F492
:1021100040C0893B09F440C08A3B09F440C090E0CC
:1021200080E00C94FA0E82EE90E0FBCF89EE90E016
:10213000F8CF8AEE90E0F5CF85EB90E0F2CF86EB1A
:1021400090E0EFCF83EB90E0ECCF84EB90E0E9CF31
:1021500087EB90E0E6CF8CEC90E0E3CF8DEC90E065
:10216000E0CF83E891E0DDCF8AE891E0DACF82E941
:1021700091E0D7CF84E991E0D4CF81E292E0D1CF52
:1021800083E292E0CECF84E292E0CBCF85E292E090
:10219000C8CF86E292E0C5CF87E292E0C2CF8AE262
:1021A00092E0BFCF0895882309F44BC0823871F4C0
:1021B0000E94C20E81FF45C089E30E94EA190E9475
:1021C000B41A89E30E94271A0C94B41A833859F47C
:1021D0000E94C20E80FF35C083E50E94EA190E946A
:1021E000B41A83E5EFCF843859F40E94C20E82FFFF
:1021F00028C087E40E94EA190E94B41A87E4E2CF5B
:102200009CEF980F913AF0F290E2980F983050F4CA
:10221000877091E001C0990F8A95EAF7892F0E9493
:10222000711AD2CF9BE5980F933020F490E080E0B4
:102230000C94E40E885A853120F490E080E00C94F0
:10224000FA0E0895882321F00E946B1A0C94B41A98
:102250000895882321F00E94711A0C94B41A0895ED
:102260008F929F92AF92BF92DF92EF92FF920F9365
:102270001F93CF93DF9300D000D00F92CDB7DEB77E
:102280007C016D837983FC01058102950F701281B9
:1022900011110E948A1A0E94E319D82E882371F026
:1022A0001123A1F08D81805E883080F082E00E9451
:1022B000CD190E94E31991E0D82ED926E981E29543
:1022C000EF70F0E0EB57F74D0C942128D12CF6CFAE
:1022D00009810F70F981F07F11F00295007F1123C1
:1022E000B1F0002361F08D81805E883018F02D817F
:1022F000211109C0802F0E946B1A0E94B41A8D818F
:102300000E94F70F15C0802F0E947C1AF6CF8D8196
:102310000E94D310002361F08D81805E883018F018
:102320003D81311129C0802F0E94711A0E94B41A78
:10233000DD2009F4D3C10E94C01980FDCFC1F7018F
:1023400012820E94BA190E940318C7010E947F13CB
:102350000E94BA190F900F900F900F900F90DF917D
:10236000CF911F910F91FF90EF90DF90BF90AF90B2
:102370009F908F900C942518802F0E94821AD6CFA0
:1023800049814F70B42E5981507F503219F0B29468
:1023900080EFB8228D81882369F0813029F11123E3
:1023A00069F1002359F0F701858180FFA8CF8F7074
:1023B000858304C0112361F0011104C08B2D0E949C
:1023C0002211B6CF8B2D0130D1F70E949E1AB0CFCB
:1023D000011106C00E94A11A8B2D0E942911A8CFBD
:1023E000013009F4A5CFF6CF112321F0063008F013
:1023F0009FCFE4CF053008F09BCFEECF002361F3F1
:102400008D810E94D31094CF8981869586958370A3
:1024100069F0813009F08CCF8D8199819370111111
:1024200002C090E080E00E94FA0E82CF8D819981F7
:102430009370111102C090E080E00E94E40E78CF0A
:102440008D81112329F00E94181E0E94FF1E70CF5B
:102450000E94801EFACF8981837009F05FC011113C
:1024600067CF2D81229526952770220F220F8D810F
:102470008F7090E0B0E0A0E04C015D01022E04C03E
:10248000880C991CAA1CBB1C0A94D2F7FD8160E041
:1024900070E0CB01F4FF0FC06FE070E080E090E0EF
:1024A00004C0660F771F881F991F2A95D2F7609581
:1024B00070958095909529812695269523702D837A
:1024C0002230B1F0233019F19B01AC0128293929C0
:1024D0004A295B2929833A834B835C833D81698147
:1024E0007A818B819C813130B1F00E94901720CF8E
:1024F0009B01AC01282939294A295B2929833A8380
:102500004B835C83CA01B9010E94BA1711CF0E94A4
:102510009017C501B4010E9466170ACF8695112352
:1025200011F089818170882309F402CF2D812295D1
:1025300026952770220F220F8D818F7090E0B0E0DA
:10254000A0E04C015D01022E04C0880C991CAA1C5D
:10255000BB1C0A94D2F73D8160E070E0CB0134FFF0
:102560000FC06FE070E080E090E004C0660F771F5E
:10257000881F991F2A95D2F7609570958095909540
:1025800049814695469543704D834230B1F04330C2
:1025900019F19B01AC01282939294A295B29298392
:1025A0003A834B835C833D8169817A818B819C81F5
:1025B0003130B1F00E949618BBCE9B01AC012829A6
:1025C00039294A295B2929833A834B835C83CA01D1
:1025D000B9010E94C018ACCE0E949618C501B40182
:1025E0000E946C18A5CE3D81323F09F447C080F4AB
:1025F000303F79F1313FD9F1832F805E8031D0F0C7
:10260000112309F456C001117ACE89818F7133C02C
:102610004D81433FD1F1443F99F7112309F43FC065
:1026200089818F7189830E94031863E089810E94E8
:10263000C4197ECE5D815F705D8389818F711123A6
:1026400021F00E9403188D81BACE0E9425188D8139
:10265000C4CE112341F0053008F06ACE89818F7114
:102660000E944A1865CE063008F062CEF7CF898105
:102670008F71112339F00E9403185ACE89818F710E
:102680001123C9F30E94251853CE112329F0898103
:102690008F710E94EE174CCE0E94E41749CE81E064
:1026A0000E94CD19023008F443CE82E00E94CD1979
:1026B0003FCE0111A5CE89818F71E4CF49814F7042
:1026C0006D81C7010E94E7090E94DF1631CE498162
:1026D0004F706D81C7010E94560B2ACE0F900F904C
:1026E0000F900F900F90DF91CF911F910F91FF905E
:1026F000EF90DF90BF90AF909F908F9008950F93D1
:102700001F93CF93DF93EC018B819C81892B29F060
:102710008881998189238F3F29F4DF91CF911F917F
:102720000F910895CE010E941F0A8823B1F368819A
:1027300079818A810E9490198C010E94EA180E9476
:102740005B17B801CE01DF91CF911F910F910C94CF
:1027500030110E948A1A0E949B1A0E945D1A0E94E0
:10276000B41A0E94F01F0E94FF1E90E080E00E94B9
:10277000E40E90E080E00C94FA0E0E94791A0C941A
:10278000A9130E948419282F892F82958F70903C5D
:1027900080F48A30B0F4843020F4823090F480E009
:1027A00008958630E1F781E0203E88F0213FB9F7B7
:1027B0000EC08C3011F08F3091F793FB882780F991
:1027C000089581E0203F39F018F4203E40F7089545
:1027D000243F29F7FCCF0895CF93DF9300D000D09A
:1027E0000F92CDB7DEB70F900F900F900F900F9014
:1027F000DF91CF910895CF93DF9300D000D000D028
:10280000CDB7DEB726960FB6F894DEBF0FBECDBFAC
:10281000DF91CF9108951F93CF93DF93E091A301B0
:1028200016E08091A4018E1304C0DF91CF911F9117
:102830000895CE2FD0E01E9FF0011124EB55FE4FDE
:102840004081518162817381848195810E94FB1353
:10285000FE013196E770E5CF4091D5015091D60148
:102860006091D7017091D8018091D9019091DA01DE
:102870000C94FB131F93CF93DF938091DA01807F39
:10288000C1F48091D7018823A1F08091A301C09168
:10289000A4016091D5017091D6014091D801509169
:1028A000D901D62FD723DA01A095B09516E0C81329
:1028B00004C0DF91CF911F91089590E0411551051B
:1028C00011F0DF3F31F401968770F1CF2A0F3B1FE3
:1028D00017C0189FF001199FF00D1124EB55FE4F02
:1028E00021812713F0CF20812613EDCF22812111E2
:1028F000EACF238134812417350740F3241B350B9D
:10290000283C310500F72091DA012F7020612093D7
:10291000DA0126E0289FF001299FF00D1124E655E9
:10292000FE4F80818F708061808385ED91E00E94F1
:102930007F13DF91CF911F910C940B149F92AF9254
:10294000BF92CF92DF92EF92FF920F931F93CF939C
:10295000DF93CDB7DEB72B970FB6F894DEBF0FBE6F
:10296000CDBF8C0185E0F801DE01179601900D9234
:102970008A95E1F7D8014C9111965C9111971296C6
:10298000EC9012978091D8019091D901009709F4A9
:102990006BC12091D5013091D601632F62236F3F27
:1029A00009F462C11396CD90DC909090D7019920E4
:1029B00009F4F8C0C816D90608F43FC0F601E81BB0
:1029C000F90BCF01FF24F394883C910508F0F12C1A
:1029D00085EDA82E81E0B82E8091DA01982F907FA6
:1029E000FF2009F4B7C0911180C0FE2C35132AC016
:1029F000241328C0E11026C08F7080618093DA0113
:102A00000E942C14C5010E947F138091DA01D80125
:102A100015968C938F2D2B960FB6F894DEBF0FBEB4
:102A2000CDBFDF91CF911F910F91FF90EF90DF907D
:102A3000CF90BF90AF909F900895809590958C0D0A
:102A40009D1DC0CFCD2829F0842F85238F3F09F00D
:102A500019C180E0B82FB170DB2EE091A301209165
:102A6000A40136E080FD1CC0EE20A1F28091DA01C5
:102A700081608093DA01F12CCDCF8E2F90E03E9FC4
:102A8000F0011124EB55FE4F6181651306C0608192
:102A9000641303C062816E11E7CFFC013196E770C9
:102AA000E213EBCF4F8358878F8198850E9484195A
:102AB000292F22952F70903260F0225F2F702230E4
:102AC00078F49F7051F0F8019581907F31F4D12C0A
:102AD0000AC09F7011F08823D1F3805E8830B8F36C
:102AE000C8010E947F13FD2C95CF351306C0241317
:102AF00004C0D801EE2009F47BC04F8358878F8132
:102B000098850E94C113882309F4B8C0EE2009F407
:102B1000B5C08091DA01803270F02091D5013091FA
:102B2000D6013A8329831B82DD82CC828E83CE013B
:102B300001960E947F1386E0F801A5EDB1E00190B7
:102B40000D928A95E1F70E943A140E942C14FF24FA
:102B5000F39460CF911113C07C2DDB86CA866E2D55
:102B60008B850E94EC1385ED91E00E947F1386E037
:102B7000F50111928A95E9F70E942C144BCF351379
:102B8000BCCF2413BACFE110B8CFD80115968C93DF
:102B9000C8010E947F1386E0F50111928A95E9F73A
:102BA000F92C38CFC816D90688F1B601681B790B05
:102BB000CB01F12C883C910508F047C0FE2CEE209B
:102BC00009F45CC0351330C024132EC08091DA01A3
:102BD00080FD21C0982F907FF1F0D80115968C933D
:102BE0001597903F39F0982F907F905F8F70892BC9
:102BF00015968C93C8010E947F1386E0F801A5ED1D
:102C0000B1E001900D928A95E1F7B6CF809590954D
:102C10008C0D9D1DCECF86E0F801A5EDB1E00190B1
:102C20000D928A95E1F7F6CE4F8358878F8198856C
:102C30000E94C11381117FCF8091DA01816080935E
:102C4000DA01C8010E947F13E5CE7C2DDB86CA869F
:102C50006E2D8B850E94EC1386E0E5EDF1E0DF013F
:102C60001D928A95E9F788CFEE2041F04F8358876F
:102C70008F8198850E94C11381115DCFC8010E9488
:102C80007F1365CF81E08E25E5CE1F93CF93DF9331
:102C9000CDB7DEB72C970FB6F894DEBF0FBECDBF11
:102CA0004F83588769877A878B879C87CE010796E1
:102CB0000E949E14882369F08A859B85892B39F0B0
:102CC0004F815885842F85238F3F09F071C016E00E
:102CD0005FC086E0FE013796DE01119601900D92ED
:102CE0008A95E1F78A859B85892B89F388859F8161
:102CF00089238F3F61F32091A40130E0C90101963F
:102D0000877099274091A3014817190671F40E9412
:102D1000BD131092A4011092A30186E0E5EDF1E04D
:102D2000DF011D928A95E9F7D2CF96E0929FD001FC
:102D3000939FB00D1124AB55BE4FFE01319601900B
:102D40000D929A95E1F78093A4010E940B14BFCFD6
:102D5000819FC00111248B559E4F0E949E14882391
:102D6000E9F0E091A3011E9FF0011124EB55FE4F05
:102D70004081518162817381848195810E94FB131E
:102D80008091A30190E00196877099278093A30119
:102D90008091A3019091A4018913DACF2C960FB6EC
:102DA000F894DEBF0FBECDBFDF91CF911F91089584
:102DB00069857A858B859C850E94FB1388CFEF926D
:102DC000FF920F931F93CF93DF938C01892B89F090
:102DD000F12CEE24E394E8012196F80184918437E4
:102DE00009F457C0A0F4823009F43EC048F48130A1
:102DF000D1F0DF91CF911F910F91FF90EF90089547
:102E00009CEF980F9037A8F70E94F70F0AC08537FC
:102E100009F44CC09CE7980F903758F78F770E94C1
:102E2000D3108E0116C00E5F1F4FFE01849190E2F9
:102E3000980F983060F48770FE2D01C0FF0F8A95BF
:102E4000EAF78F2F0E948D1A0E94B41A02C00E94C6
:102E5000F70F8F2D815008F4BECFEFE9FFE03197D7
:102E6000F1F700C00000F6CF0E5F1F4FFE01849106
:102E700090E2980F983050F48770FE2D01C0FF0F3C
:102E80008A95EAF78F2F0E94931ADECF0E94D31003
:102E9000E0CF0E5F1F4FFE01C491C150D0F28FE909
:102EA0009FE00197F1F700C00000F7CF0E5F1F4FC2
:102EB000FE01F490CECF08956093340270933502F2
:102EC00080933602909337020C94A913CF93DF932B
:102ED00000D000D0CDB7DEB769837A838B839C8323
:102EE0008091340290913502A0913602B091370260
:102EF00029813A814B815C81822B932BA42BB52BAA
:102F00008093340290933502A0933602B093370237
:102F10000F900F900F900F90DF91CF910C94A91309
:102F2000CF93DF9300D000D0CDB7DEB769837A832B
:102F30008B839C838091340290913502A09136025C
:102F4000B091370229813A814B815C81822393239E
:102F5000A423B5238093340290933502A0933602C4
:102F6000B09337020F900F900F900F90DF91CF9199
:102F70000C94A913CF93DF9300D000D0CDB7DEB768
:102F800069837A838B839C8380913402909135028C
:102F9000A0913602B091370229813A814B815C8140
:102FA00082279327A427B527809334029093350274
:102FB000A0933602B09337020F900F900F900F90AE
:102FC000DF91CF910C94A91310923002109231022C
:102FD00010923202109233020C94A91341E050E097
:102FE00060E070E004C0440F551F661F771F8A958C
:102FF000D2F74093300250933102609332027093C3
:1030000033020C94A913282F81E090E0A0E0B0E0F7
:1030100004C0880F991FAA1FBB1F2A95D2F74091A1
:103020003002509131026091320270913302842B50
:10303000952BA62BB72B8093300290933102A0934F
:103040003202B09333020C94A91341E050E060E0E7
:1030500070E004C0440F551F661F771F8A95D2F792
:103060004095509560957095809130029091310215
:10307000A0913202B091330284239523A623B72373
:103080008093300290933102A0933202B0933302C6
:103090000C94A913282F81E090E0A0E0B0E004C0D8
:1030A000880F991FAA1FBB1F2A95D2F740913002A3
:1030B000509131026091320270913302842795273A
:1030C000A627B7278093300290933102A093320253
:1030D000B09333020C94A913CF93DF9300D000D0A8
:1030E000CDB7DEB769837A838B839C83809130026E
:1030F00090913102A0913202B091330229813A813C
:103100004B815C81822B932BA42BB52B80933002B7
:1031100090933102A0933202B09333020F900F903C
:103120000F900F90DF91CF910C94A913CF93DF9361
:1031300000D000D0CDB7DEB769837A838B839C83C0
:103140008091300290913102A0913202B09133020D
:1031500029813A814B815C8182239323A423B52367
:103160008093300290933102A0933202B0933302E5
:103170000F900F900F900F90DF91CF910C94A913A7
:10318000CF93DF9300D000D0CDB7DEB769837A83C9
:103190008B839C838091300290913102A091320206
:1031A000B091330229813A814B815C818227932738
:1031B000A427B5278093300290933102A093320266
:1031C000B09333020F900F900F900F90DF91CF913B
:1031D0000C94A9130895E82F2BE0929FE00D112481
:1031E0008E2F877041E001C0440F8A95EAF7E6957B
:1031F000E695E69585E0E89FF0011124E552FE4F43
:1032000030E020E070E05191DF011197CB01022EF8
:1032100002C0969587950A94E2F78170819585277B
:10322000842385278C932F5F3F4F2530310559F735
:103230000895E82F2BE0929FE00D11249E2F9770A8
:10324000E695E695E69585E0E89FF0011124E552C4
:10325000FE4F50E040E080E0219130E0092E02C0B6
:10326000369527950A94E2F721703327042E01C082
:10327000220F0A94EAF7822B4F5F5F4F45305105CA
:1032800059F70895BF92CF92DF92EF92FF920F937A
:103290001F93CF93DF938C01C0903002D090310206
:1032A000E0903202F0903302809134029091350226
:1032B000A0913602B0913702C82AD92AEA2AFB2AFD
:1032C000CFE1D0E0BC2ED701C6010C2E04C0B695CC
:1032D000A795979587950A94D2F780FD0EC0219700
:1032E00088F7B12C8B2DDF91CF911F910F91FF901B
:1032F000EF90DF90CF90BF900895B8018C2F0E947F
:10330000730B019761F3EECFCF93DF93D82FC92FC3
:103310000E9442196D2F7C2FDF91CF910C94730B7B
:103320001F93CF93DF93162FD72F9091A20199234C
:1033300039F0862F972FDF91CF911F910C9484192C
:10334000882391F0862F972F0E944219C82F682F4B
:10335000812F9D2F0E94EB18612F7D2F8C2FDF91E5
:10336000CF911F910C94730B862F972F0E941919E0
:10337000C82FF2CF8091380285958595859508955F
:10338000809138028770089598E0899F90011124F8
:10339000622B609338020C94031890913802809548
:1033A000892380933802282F277061F4282F082E54
:1033B000000C330B9217130629F08595859585959A
:1033C0000C942518089590913802977081E009F4C3
:1033D00080E00895909112019923E1F090918E027E
:1033E00097FF18C0E82FE695E695E695EF3139F19D
:1033F0002091000130910101E20FF32FF11D877040
:1034000021E030E001C0220F8A95EAF78181822B0A
:10341000818308952091000130910101F9013296D4
:103420009FEF40E05191851751F09F3F19F45111E2
:1034300001C0942F4F5F4E31A9F79F3F09F40895C3
:10344000290F311D97FD3A95F901828308959091D6
:103450001201992301F190918E0297FF1CC0E82F71
:10346000E695E695E695EF3139F12091000130912E
:103470000101E20FF32FF11D877021E030E0A90177
:1034800002C0440F551F8A95E2F7CA0180959181C9
:103490008923818308952091000130910101F90170
:1034A0003296205E3F4F9191891303C0DF0111973F
:1034B0001C92E217F307B9F7089581E090E0E091DC
:1034C0000001F0910101E80FF91F1082019680328E
:1034D0009105A9F7089590915C02982B90935C0256
:1034E0000895982F909580915C02892380935C02C7
:1034F000089510925C02089590915B02982B90932E
:103500005B020895982F909580915B0289238093A8
:103510005B02089510925B02089590915A02982BD5
:1035200090935A020895982F909580915A0289237A
:1035300080935A02089510925A0208958093390296
:1035400008951092390208952091000130910101EF
:10355000F9013196205E3F4F80E0919191118F5F8C
:10356000E217F307D1F70895E0910001F09101010E
:1035700080915C028083E0910001F09101018081E3
:1035800090915B02892B8083E0910001F091010111
:10359000808190915A02892B8083909139029923DE
:1035A00061F0E0910001F09101018081892B80831D
:1035B0000E94A41A81111092390280910001909109
:1035C00001010C94CE0E6DEE7EEF90E080E00E9443
:1035D0005B2860E082E090E00E94492860E083E0A0
:1035E00090E00E94492860E084E090E00E94492831
:1035F00060E085E090E00C94492890E080E00E9433
:1036000043289C0181E02D3E3E4F09F080E0089563
:1036100082E090E00C943B28682F82E090E00C94CC
:10362000492883E090E00C943B28682F83E090E0E9
:103630000C94492884E090E00C943B28682F84E0A7
:1036400090E00C94492880919402843039F11092D2
:103650005E0288E190E020E40FB6F894A89580938C
:1036600060000FBE2093600080E00E94540B83B77F
:10367000817F846083BF83B7816083BF789488959E
:1036800083B78E7F83BF0FB6F894A89580916000B2
:10369000886180936000109260000FBE08950895C5
:1036A0000895CF930E944F1B0E94FE0D0E94501B55
:1036B000C0E08C2F0E94B30E892B31F4CF5FCC3049
:1036C000C1F780E0CF91089581E0FCCF0E94BD1347
:1036D0000E94C20E0C94540B1F921FB61F9211240D
:1036E0008F939F93AF93BF9380915E02811113C01C
:1036F00080918A0290918B02A0918C02B0918D02F0
:103700004196A11DB11D80938A0290938B02A093D4
:103710008C02B0938D02BF91AF919F918F911F90BA
:103720001FBE1F90189582E084BD93E095BD9AEF6F
:1037300097BD80936E0008952FB7F89480918A0208
:1037400090918B02A0918C02B0918D022FBF0895B1
:10375000CF92DF92EF92FF929C014FB7F894809145
:103760008A0290918B02A0918C02B0918D024FBF82
:103770006C017D01EE24FF24A90170E060E0C41615
:10378000D506E606F70638F0821B930BFF90EF9004
:10379000DF90CF9008950197F7CF1F921FB61F9229
:1037A00011248F939F93AF93BF9380918A0290913E
:1037B0008B02A0918C02B0918D020196A11DB11DCA
:1037C00080938A0290938B02A0938C02B0938D0217
:1037D000BF91AF919F918F911F901FBE1F90189521
:1037E0000E94E423F8942FEF87EA91E6215080406D
:1037F0009040E1F700C0000087E090EBDC0180938F
:103800009D0290939E02A0939F02B093A00288E134
:103810009CE00FB6F894A895809360000FBE90933B
:103820006000FFCFAF92BF92CF92DF92EF92FF92F4
:103830000F931F93CF93C0E0AA24A394B12CE82E3A
:10384000F12C8C2F0E94B30E6C0110E000E0C5013A
:10385000002E02C0880F991F0A94E2F78C219D2147
:10386000892B99F0602F7C2F80E00E94570BE8167F
:10387000F90659F481E0CF911F910F91FF90EF90DD
:10388000DF90CF90BF90AF9008950F5F1F4F0B3028
:103890001105E9F6CF5FCC30A1F680E0ECCFCF93F5
:1038A000C82F8CE20E94121C882321F08C2FCF910C
:1038B0000C94121C80E0CF910895CF93DF9300D039
:1038C00000D0CDB7DEB70E94FD1A811102C00E9460
:1038D000E31A95E6998308C00E94FE0D8FE39CE9E8
:1038E0000197F1F700C00000A981A150A983A1119F
:1038F000F3CF89E20E944F1C811110C18AE20E941D
:103900004F1C81110E94E31A85E00E944F1C811117
:103910000E94F01B0E94081B80935D0287E00E94BA
:103920004F1C882371F08BE10E944F1C882309F4FF
:10393000D1C090915D02892F8D7F91FF826080932D
:103940005D0280915D020E940C1B0E941A1B90E098
:1039500090938F0280938E0280EE0E944F1C8823EA
:1039600041F090918E02892F8E7F90FF816080932D
:103970008E0289E30E944F1C882341F090918E02B1
:10398000892F8D7F91FF826080938E0282EE0E944C
:103990004F1C882341F090918E02892F8B7F92FFDC
:1039A000846080938E0286EE0E944F1C882341F033
:1039B00090918E02892F877F93FF886080938E027B
:1039C00083EE0E944F1C882341F090918E02892F34
:1039D0008F7E94FF806180938E0285E30E944F1C4E
:1039E000882341F090918E02892F8F7D95FF806210
:1039F00080938E0281E30E944F1C882341F09091B6
:103A00008E02892F8F7B96FF806480938E0281E1E6
:103A10000E944F1C882341F090918E02892F97FBC2
:103A200087F9805880938E0280918E020E941E1B1F
:103A300087E20E944F1C89838EE10E944F1C8823DD
:103A400019F0B981B260B9838FE10E944F1C8823BD
:103A500019F029812460298380E20E944F1C882369
:103A600019F039813860398381E20E944F1C882324
:103A700019F049814061498382E20E944F1C8823EA
:103A800019F059815062598383E20E944F1C8823A8
:103A900019F089818064898384E20E944F1C882305
:103AA000B1F199819068998389810E94151B3981B0
:103AB000232F30E050E040E029833A834B835C833E
:103AC000CA01B9010F900F900F900F90DF91CF9125
:103AD0000C945C178EE00E944F1C882339F0909163
:103AE0005D02892F8B7F92FF846029CF80E10E9445
:103AF0004F1C90915D02882329F0892F877F93FFC7
:103B000088601DCF892F8E7F90FF816018CFA9819B
:103B1000A111CACF0E94111B282FCBCF0F900F905D
:103B20000F900F90DF91CF9108958091610280FFF7
:103B300012C06091050185E0689FB0011124759560
:103B400067957595679560387105A8F561157105DC
:103B5000A1F1862F089581FF09C06091050185E0DC
:103B6000689FB001112475956795EDCF60910501AF
:103B700082FD0AC0809162028823D1F090910401F5
:103B800060910501891728F085E0689FB001112434
:103B9000DACF869FB001112485E0869F9001879F30
:103BA000300D1124692F70E0C9010E940D28CBCF80
:103BB00065E070E0CECF8FE7089581E008958091B1
:103BC000610280FF0CC06091030170E075956795FC
:103BD000759567956115710549F1862F089581FFE7
:103BE00006C06091030170E075956795F3CF609111
:103BF000030182FD0BC0909162029923A1F06091B4
:103C0000020180910301961738F0682F70E0603848
:103C1000710500F38FE70895899FC001112470E0BA
:103C20000E940D28F4CF61E070E0D7CF81E00895C5
:103C3000803F31F40E94951D81958093650208951F
:103C4000813F19F40E94951DF8CF823F31F40E9404
:103C5000951D8195809364020895833F19F40E9415
:103C6000951DF8CF893F29F40E94DF1D80936602DD
:103C700008958A3F21F40E94DF1D8195F7CF8B3F85
:103C800031F40E94DF1D81958093670208958C3F77
:103C900019F40E94DF1DF8CF843F31F48091630254
:103CA0008160809363020895853F21F480916302CF
:103CB0008260F7CF863F21F4809163028460F1CF68
:103CC000873F21F4809163028860EBCF883F21F425
:103CD000809163028061E5CF8D3F31F48091610274
:103CE00081608093610208958E3F21F4809161028A
:103CF0008260F7CF8F3FB9F7809161028460F1CF86
:103D000090916402803F41F48091650287FD10929A
:103D10006502992371F00895813F29F4809165022D
:103D20001816ACF3F6CF823F81F497FFF2CF1092D2
:103D300064028091650290916602892B90916702DE
:103D4000892B49F7109262020895833F19F41916DE
:103D500074F3DFCF893F39F4809166021816CCF6F0
:103D600010926602D6CF8A3F29F48091660287FFBF
:103D7000D0CFF6CF8B3F39F48091670287FFC9CF50
:103D800010926702C6CF8C3F29F480916702181603
:103D9000BCF3BFCF843F31F4809163028E7F809368
:103DA0006302B7CF853F21F4809163028D7FF7CF07
:103DB000863F21F4809163028B7FF1CF873F21F40E
:103DC00080916302877FEBCF883F21F4809163026B
:103DD0008F7EE5CF8D3F31F4809161028E7F80939D
:103DE000610297CF8E3F21F4809161028D7FF7CFE2
:103DF0008F3F09F08ECF809161028B7FF0CF83E6F9
:103E000092E00E94D90E0E949C1B909360028093C6
:103E10005F0208951F93CF93DF9300D000D000D0AE
:103E2000CDB7DEB780915F02909160020E94A81B1F
:103E3000AC01809162022091060130E0811106C040
:103E4000209107019AE0299F9001112442175307FE
:103E500088F020916402A0916502A9831091660206
:103E6000B0916702BE8321110FC09A2F912B9B2B1B
:103E700009F0B2C026960FB6F894DEBF0FBECDBFD4
:103E8000DF91CF911F9108958F3F19F08F5F80933D
:103E90006202121624F40E94951D809364028091A0
:103EA000640287FF05C00E94951D8195809364027E
:103EB0002981121624F40E94951D80936502809139
:103EC000650287FF05C00E94951D8195809365025C
:103ED00080916402882309F455C0309165023D83C6
:103EE000332309F44FC0282F880F330B440B550B95
:103EF00029833A834B835C83CA01B9010E9414274A
:103F000023E333E343E35FE369837A838B839C8317
:103F100069817A818B819C810E94782769837A8369
:103F20008B839C8369817A818B819C810E94DC26B2
:103F3000609364028D81082E000C990BAA0BBB0BB9
:103F400089839A83AB83BC83BC01CD010E94142773
:103F500023E333E343E35FE369837A838B839C83C7
:103F600069817A818B819C810E94782769837A8319
:103F70008B839C8369817A818B819C810E94DC2662
:103F800060936502111624F40E94DF1D809366027F
:103F90008091660287FF05C00E94DF1D8195809396
:103FA00066029E81191624F40E94DF1D8093670229
:103FB0008091670287FF05C00E94DF1D8195809375
:103FC000670226960FB6F894DEBF0FBECDBFDF9115
:103FD000CF911F910C94FF1E8F3F09F057CF68CFF0
:103FE00085E0E3E6F2E0DF011D928A95E9F71092A1
:103FF0006202109261020895809188020895CF9321
:10400000DF9300D00F92CDB7DEB720919402243019
:1040100019F523E029838A839B832093E9008FEF9E
:104020009091E800815095FD06C095ED9A95F1F7C5
:1040300000008111F5CF8091E80085FF0DC050E0B0
:1040400040E063E070E0CE0101960E945C22809126
:10405000E8008E778093E8000F900F900F90DF912B
:10406000CF910895CF93DF9300D00F92CDB7DEB7F5
:104070009C0180919402843031F582E0898320583C
:1040800031093B832A8383E08093E9008FEF90918D
:10409000E800815095FD06C095ED9A95F1F7000076
:1040A0008111F5CF8091E80085FF0DC050E040E020
:1040B00063E070E0CE0101960E945C228091E800EE
:1040C0008E778093E8000F900F900F90DF91CF9143
:1040D0000895209194022430F1F422E02093E90025
:1040E0002FEF3091E800215035FD06C035ED3A95AF
:1040F000F1F700002111F5CF2091E80025FF0BC05A
:1041000050E040E065E070E00E945C228091E800B1
:104110008E778093E8000895CF93DF93D82FC92F2F
:10412000809194028430F1F4909112019923E9F086
:1041300090918E0297FF19C08093E9008FEF9091C4
:10414000E800815095FD06C095E19A95F1F70000D1
:104150008111F5CF8091E80050E040E060E270E02E
:1041600085FD1AC0DF91CF91089581E08093E90029
:104170008FEF9091E800815095FD06C095ED9A95DE
:10418000F1F700008111F5CF8091E80085FFEACFBB
:1041900050E040E068E070E08D2F9C2F0E945C2290
:1041A0008091E8008E778093E80080E2ED2FFC2F6D
:1041B000A8E6B2E001900D928A95E1F7D3CF809105
:1041C0009302811109C00E94E4230E94412480913E
:1041D000E20084608093E2000895109293020895B3
:1041E000089508950C94661B42E061EC81E00E9402
:1041F000602342E061EC82E00E94602342E061ECD7
:1042000083E00E94602342E261EC84E00C9460232E
:1042100080919602893089F148F4823009F494C083
:10422000833009F44FC0813041F008958A3009F499
:104230007BC08B3009F461C0089580919502813A6A
:1042400009F03FC08091E800877F8093E80080916B
:10425000990290919A02892B61F460E288E692E0DB
:1042600070E00E94AB228091E8008B778093E80099
:10427000089560E090E080E0F3CF80919502813274
:1042800001F58091990290919A02009711F003979D
:10429000C1F48091E800877F8093E8008091E80076
:1042A00082FF0BC08091F100809388028091E8002A
:1042B0008B778093E8000C94942380919402811171
:1042C000EDCF089580919502813AD9F780919902B6
:1042D00090919A02892BA9F78091E800877F8093BB
:1042E000E8008091E80080FFFCCF8091120180936C
:1042F000F1008091E8008E77DCCF809195028132C9
:1043000001F78091990290919A02892BD1F68091C0
:10431000E800877F8093E8000E94942380919702B1
:10432000809312010C94BD1380919502813249F65D
:104330008091E800877F8093E8000E949423809119
:10434000980280938902089580919502813A09F03C
:10435000B8CF8091E800877F8093E8008091E800E3
:1043600080FFFCCF80918902C2CF84B7877F84BF52
:104370000FB6F894A89580916000886180936000E2
:10438000109260000FBE80E880936100109261007F
:104390000E94110F0E94E4230E9441248091E200B8
:1043A00084608093E20078940E94C1260E94130FDB
:1043B00088E091E00E94BD0E80919402853019F052
:1043C0000E94190FF9CF0E94231B8091920288232B
:1043D00099F30E94511B882379F30E944622ECCF67
:1043E0009C01DA01892F992783309105C1F068F487
:1043F0008130910509F445C0029761F48DE690E0A3
:1044000020EC31E12D933C93089581329105E1F048
:10441000829739F190E080E030E020E0F3CFC901ED
:104420009927213059F08230910559F0ECEBF1E1F8
:10443000892B81F7849190E09F01E4CFE4EAF1E1D8
:10444000F9CFE0E9F1E1F6CF643020F7E62FF0E0B4
:10445000EE0FFF1FEA5CFE4F2081318189E090E082
:10446000D1CF6430B8F670E0FB01EE0FFF1FE25DC4
:10447000FE4F20813181665D7E4FFB01808190E09F
:10448000C1CF82E190E02DE232E1BCCF80E189BD75
:1044900082E189BD09B400FEFDCF8091D8008F7DF7
:1044A0008093D8008091E00082608093E00080914A
:1044B000E00081FDFCCF0895AF92BF92CF92DF92D2
:1044C000FF920F931F93CF93DF936C01EB018A014F
:1044D0000E94B323F82E811123C00115110539F074
:1044E000F80180819181C81BD90BC80ED91EB12C4F
:1044F000A12C2097A9F08091E80085FD22C0809131
:10450000E8008E778093E80001151105A1F0F8010D
:1045100080819181A80EB91EB182A08285E0F82E1B
:104520008F2DDF91CF911F910F91FF90DF90CF9052
:10453000BF90AF9008950E94B3238823D1F2F82E44
:10454000EFCFF60181916F018093F1002197FFEF8A
:10455000AF1ABF0ACECFFC01CB0120919B02309154
:104560009C022617370790F0009729F42091E80065
:104570002E772093E80040E0009751F4411108C0E5
:104580008091E80082FF31C080E00895C901F3CF37
:10459000209194022223A9F12530A9F12091E8006D
:1045A00023FD2DC02091E80022FDEACF2091E800F4
:1045B00020FFE2CF3091F3002091F200009719F034
:1045C0002830310558F041E02830310509F040E04D
:1045D0002091E8002E772093E800CECF41914093C0
:1045E000F10001972F5F3F4FE9CF8091940288231C
:1045F00041F0853041F08091E80083FFC1CF81E038
:10460000089582E0089583E00895FC01CB01209194
:104610009B0230919C022617370790F0009729F4EF
:104620002091E8002E772093E80040E0009751F4B5
:10463000411108C08091E80082FF32C080E00895F7
:10464000C901F3CF209194022223B1F12530B1F1B9
:104650002091E80023FD2EC02091E80022FDEACF42
:104660002091E80020FFE2CF3091F3002091F2008A
:10467000009719F02830310558F041E02830310515
:1046800009F040E02091E8002E772093E800CECF9B
:1046900044914093F100319601972F5F3F4FE8CF4F
:1046A00080919402882341F0853041F08091E800A8
:1046B00083FFC0CF81E0089582E0089583E00895EC
:1046C000982F973028F08F708093E90081E008954B
:1046D0009093E900242F762F50E0981731F07091D5
:1046E000EC002091ED005091F00021FD02C09F5F91
:1046F000E8CF3091EB003E7F3093EB003091ED003E
:104700003D7F3093ED003091EB0031603093EB0052
:104710007093EC002093ED005093F0002091EE0098
:1047200027FDE5CF80E008958091950287FF13C0B3
:104730008091E80082FF06C08091E8008B7780932B
:10474000E80004C0809194028111F2CF0895809115
:1047500094028823D9F38091E80080FFF8CF8091FC
:10476000E8008E77ECCF2091E4003091E50095E6EB
:10477000A9012091EC00822F817020FF06C080915A
:10478000E80080FF06C080E008952091E80022FD47
:104790001AC080919402882389F0853089F0809135
:1047A000EB0085FD0FC02091E4003091E500421739
:1047B0005307F9F29150E1F684E0089582E00895FC
:1047C00083E0089581E008950E9452240E945A24B3
:1047D000E0EEF0E0808181608083E8EDF0E08081B0
:1047E0008F77808319BCA7EDB0E08C918E7F8C937E
:1047F00080818F7E80831092930208950F931F9380
:10480000CF93DF930E9452240E945A24C8EDD0E037
:1048100088818F77888388818068888388818F7D6D
:10482000888319BC10929402109290021092920206
:104830001092910200EE10E0F80180818B7F80835E
:1048400088818160888342E060E080E00E9460238C
:10485000E1EEF0E080818E7F8083E2EEF0E0808107
:1048600081608083808188608083F80180818E7F71
:104870008083888180618883DF91CF911F910F9120
:104880000895E8EDF0E080818F7E8083E7EDF0E031
:1048900080818160808384E082BF81E08093930285
:1048A0000C94FE23E8EDF0E080818E7F80831092EF
:1048B000E20008951092DA001092E10008951F922C
:1048C0000F920FB60F9211242F933F934F935F9344
:1048D0006F937F938F939F93AF93BF93EF93FF93C8
:1048E0008091E10082FF0BC08091E20082FF07C04F
:1048F0008091E1008B7F8093E1000E94C02680912F
:10490000DA0080FF19C08091D80080FF15C0809127
:10491000DA008E7F8093DA008091D90080FF94C006
:1049200080E189BD82E189BD09B400FEFDCF81E04F
:10493000809394020E94DF208091E10080FF19C0E3
:104940008091E20080FF15C08091E2008E7F80930D
:10495000E2008091E20080618093E2008091D800C3
:1049600080628093D80019BC85E0809394020E94F5
:10497000F1208091E10084FF29C08091E20084FF52
:1049800025C080E189BD82E189BD09B400FEFDCF6B
:104990008091D8008F7D8093D8008091E1008F7E38
:1049A0008093E1008091E2008F7E8093E20080910D
:1049B000E20081608093E20080919002882309F4F4
:1049C00049C084E0809394020E94F2208091E1002B
:1049D00083FF29C08091E20083FF25C08091E10020
:1049E000877F8093E10082E080939402109290028E
:1049F0008091E1008E7F8093E1008091E2008E7FC4
:104A00008093E2008091E20080618093E20042E0C6
:104A100060E080E00E9460238091F00088608093D5
:104A2000F0000E94F020FF91EF91BF91AF919F9114
:104A30008F917F916F915F914F913F912F910F9047
:104A40000FBE0F901F90189519BC109294020E94EF
:104A5000ED2072CF8091E30087FD02C081E0B2CFEC
:104A600083E0B0CF1F920F920FB60F9211242F93B5
:104A70003F934F935F936F937F938F939F93AF93E6
:104A8000BF93CF93DF93EF93FF93D091E900DF7053
:104A90008091EC00C82FC17080FDC0E81092E90041
:104AA0008091F000877F8093F00078940E947625B3
:104AB0001092E9008091F00088608093F000CD2B87
:104AC000CF70C093E900FF91EF91DF91CF91BF913B
:104AD000AF919F918F917F916F915F914F913F9196
:104AE0002F910F900FBE0F901F9018951F93CF938B
:104AF000DF93CDB7DEB7AA970FB6F894DEBF0FBE2F
:104B0000CDBF85E992E0FC0101962091F100208360
:104B100022E08D399207B9F70E9408218091E800C0
:104B200083FF16C180919502909196029A3008F009
:104B30000FC1E92FF0E0EB56F74D0C942128803897
:104B400081F0823809F004C1809199028F708093BE
:104B5000E9008091EB0085FB882780F91092E9003D
:104B600006C0809191029091920291118260909181
:104B7000E800977F9093E8008093F1001092F10095
:104B80008091E8008E77E0C0882309F4CEC082309F
:104B900009F0DEC0809197028111D1C08091990205
:104BA0008F7009F4D5C08093E9002091EB0020FFBD
:104BB000C6C0933031F48091EB0080628093EB00AB
:104BC000BEC09091EB0090619093EB0021E030E04B
:104BD00001C0220F8A95EAF72093EA001092EA00BA
:104BE0008091EB008860EACF8111B2C010919702EA
:104BF0001F778091E3008078812B8093E300809180
:104C0000E800877F8093E8000E9494238091E80069
:104C100080FFFCCF8091E30080688093E30082E016
:104C2000111183E08093940293C08058823008F081
:104C30008FC080919702909198028C3D23E092075B
:104C4000A1F583E08A838AE289834FB7F894DE0175
:104C5000139620E03EE051E2E32FF0E0509357003E
:104C6000E49120FF03C0E295EF703F5FEF708E2F5D
:104C700090E0EA30C0F0C7968D939D932F5F24316A
:104C800059F74FBF8091E800877F8093E8006AE280
:104C900070E0CE0101960E94AB228091E8008B77F4
:104CA0008093E80055C0C096E7CFAE014F5F5F4FDD
:104CB000609199020E94F021BC01892B09F448C03F
:104CC0008091E800877F8093E80089819A810E9423
:104CD0000523E3CF8038E1F58091E800877F80935A
:104CE000E800809190028093F1004ACF811130C09A
:104CF00090919702923060F58091E800877F8093D1
:104D0000E800909390020E9494238091900288235F
:104D100011F084E005C08091E30087FDFACF81E0C7
:104D2000809394020E94F42013C0809197028130F6
:104D300079F481E0933009F080E080939202109240
:104D4000E9008091E800877F8093E8000E94942327
:104D50008091E80083FF0AC08091E800877F8093FC
:104D6000E8008091EB0080628093EB00AA960FB67A
:104D7000F894DEBF0FBECDBFDF91CF911F91089594
:104D80000895CF93809194028823A1F0C091E90007
:104D9000CF709091EC00892F817090FD80E8C82B36
:104DA0001092E9008091E80083FD0E947625CF7083
:104DB000C093E900CF9108950E94E3266894B11151
:104DC0000C94722708950E94572788F09F5798F0F7
:104DD000B92F9927B751B0F0E1F0660F771F881F00
:104DE000991F1AF0BA95C9F714C0B13091F00E941A
:104DF0007127B1E008950C947127672F782F8827C9
:104E0000B85F39F0B93FCCF3869577956795B39540
:104E1000D9F73EF490958095709561957F4F8F4FAF
:104E20009F4F0895E89409C097FB3EF490958095B4
:104E3000709561957F4F8F4F9F4F9923A9F0F92F60
:104E400096E9BB279395F695879577956795B795DE
:104E5000F111F8CFFAF4BB0F11F460FF1BC06F5FC4
:104E60007F4F8F4F9F4F16C0882311F096E911C0D6
:104E7000772321F09EE8872F762F05C0662371F0F7
:104E800096E8862F70E060E02AF09A95660F771F0B
:104E9000881FDAF7880F9695879597F9089557FD3B
:104EA0009058440F551F59F05F3F71F04795880F98
:104EB00097FB991F61F09F3F79F08795089512162F
:104EC00013061406551FF2CF4695F1DF08C01616DB
:104ED00017061806991FF1CF86957105610508948C
:104EE0000895E894BB2766277727CB0197F90895A3
:104EF0000E948B270C94FC270E94EE2738F00E941A
:104F0000F52720F0952311F00C94E5270C94EB275E
:104F100011240C9472270E944F2770F3959FC1F3C0
:104F2000950F50E0551F629FF001729FBB27F00D57
:104F3000B11D639FAA27F00DB11DAA1F649F6627AC
:104F4000B00DA11D661F829F2227B00DA11D621FFB
:104F5000739FB00DA11D621F839FA00D611D221FB5
:104F6000749F3327A00D611D231F849F600D211D99
:104F7000822F762F6A2F11249F5750409AF0F1F01C
:104F800088234AF0EE0FFF1FBB1F661F771F881F85
:104F900091505040A9F79E3F510580F00C94E527B1
:104FA0000C9472275F3FE4F3983ED4F3869577958F
:104FB0006795B795F795E7959F5FC1F7FE2B880F2B
:104FC000911D9695879597F9089597F99F6780E8C1
:104FD00070E060E008959FEF80EC089500240A944B
:104FE0001616170618060906089500240A941216C4
:104FF0001306140605060895092E0394000C11F4F7
:10500000882352F0BB0F40F4BF2B11F460FF04C0A3
:105010006F5F7F4F8F4F9F4F089597FB072E16F4BA
:10502000009407D077FD09D00E94272807FC05D0FF
:105030003EF4909581959F4F0895709561957F4FAF
:105040000895EE0FFF1F0590F491E02D0994AA1B1F
:10505000BB1B51E107C0AA1FBB1FA617B70710F063
:10506000A61BB70B881F991F5A95A9F78095909595
:10507000BC01CD010895F999FECF92BD81BDF89A8A
:10508000992780B50895A8E1B0E042E050E00C9483
:105090006328262FF999FECF92BD81BDF89A01971A
:1050A00000B4021639F01FBA20BD0FB6F894FA9A70
:1050B000F99A0FBE08950196272F0E944A280C9452
:1050C0004928DC01CB01FC01F999FECF06C0F2BDF5
:1050D000E1BDF89A319600B40D9241505040B8F7B6
:1050E0000895F894FFCFBF0ACB0ACF0AD30AD70A94
:1050F000DB0ADF0AE30AE70AEB0AEF0AF30AF70A18
:10510000FB0AFF0A030B070B0B0B68116811C01198
:10511000C01104122012981198112B129811F31239
:10512000F3125E139811981167139F25C425A826C2
:0E513000C425A826F4251526A8266A2676266C
:10513E003A022808140A321EFC1F8C2069203220E5
:10514E00FF1F01909192933630F43331F7F6946647
:10515E0097C63435F532379567F1404D3639FB1227
:0E516E00AE1278123F12D211EB1104121D1274
:00000001FF
